:100000000C942A000C94AE140C9447000C944700F6
:100010000C9447000C94E2000C9447000C944700A9
:100020000C9447000C9447000C9447000C94470034
:100030000C9447000C9447000C9447000C94470024
:100040000C9468000C9447000C9447000C944700F3
:100050000C94470011241FBECFE5D8E0DEBFCDBF12
:1000600012E0A0E6B0E0E0EAF9E302C005900D92EC
:10007000A031B107D9F712E0A0E1B2E001C01D92B2
:10008000AC33B107E1F70E947E120C94CE1C0C94A5
:100090000000DF93CF93CDB7DEB7E7E2F0E080E476
:1000A0008083E6E2F0E08FE880830E945A00CF91DF
:1000B000DF910895DF93CF93CDB7DEB7A6E2B0E02E
:1000C000E6E2F0E0808180648C93CF91DF91089527
:1000D0001F920F920FB60F9211242F933F934F93BD
:1000E0005F936F937F938F939F93AF93BF93EF93A0
:1000F000FF93DF93CF93CDB7DEB7E4E2F0E08081EA
:100100009181CC01A0E0B0E0BC01CD010E94CD19ED
:10011000DC01CB018093100290931102A093120294
:10012000B09313020E945A00CF91DF91FF91EF919B
:10013000BF91AF919F918F917F916F915F914F91FF
:100140003F912F910F900FBE0F901F9018950F9316
:100150001F93DF93CF93CDB7DEB7A7E3B0E0E7E31C
:10016000F0E0808188608C93A1E3B0E0E1E3F0E00F
:10017000808180688C93E5E4F0E088E68083E9E59F
:10018000F0E080E4808303E410E08091100290911D
:100190001102A0911202B0911302BC01CD010E9484
:1001A0000F15DC01CB01F80180837894A5E4B0E061
:1001B000E5E4F0E0808184608C93CF91DF911F9122
:1001C0000F9108951F920F920FB60F9211240F9363
:1001D0001F932F933F934F935F936F937F938F93CF
:1001E0009F93AF93BF93EF93FF93DF93CF93CDB7DD
:1001F000DEB703E410E08091100290911102A0910B
:100200001202B0911302BC01CD010E940F15DC0156
:10021000CB01F8018083CF91DF91FF91EF91BF91E6
:10022000AF919F918F917F916F915F914F913F918E
:100230002F911F910F910F900FBE0F901F90189547
:10024000DF93CF93CDB7DEB7E0970FB6F894DEBF5C
:100250000FBECDBFE4E3F0E08FE08083E5E3F0E0A4
:1002600080EF808380E090E0A0EAB0E48DA79EA7B5
:10027000AFA7B8AB6DA57EA58FA598A92BEA3AEAE2
:100280004AEA50E40E94E516DC01CB0189A79AA74F
:10029000ABA7BCA769A57AA58BA59CA520E030E0FB
:1002A00040E85FE30E94EB1888231CF481E088A7F4
:1002B00091C069A57AA58BA59CA520E030E04FE709
:1002C00053E40E948B1818160CF07BC06DA57EA518
:1002D0008FA598A920E030E04AE754E40E94DF1798
:1002E000DC01CB018CA39DA3AEA3BFA36CA17DA118
:1002F0008EA19FA120E030E04AE755E40E94E51678
:10030000DC01CB0188A399A3AAA3BBA368A179A10F
:100310008AA19BA120E030E040E85FE30E94EB1857
:1003200088232CF481E090E09F8F8E8F3FC068A1DE
:1003300079A18AA19BA120E03FEF4FE757E40E94FB
:100340008B1818164CF56CA17DA18EA19FA120E001
:1003500030E040E251E40E94E516DC01CB01BC0133
:10036000CD010E940F15DC01CB019F8F8E8F0FC036
:1003700080E991E09D8F8C8F8C8D9D8D0197F1F799
:100380009D8F8C8F8E8D9F8D01979F8F8E8F8E8DE1
:100390009F8D009769F724C068A179A18AA19BA1CC
:1003A0000E940F15DC01CB019F8F8E8F8E8D9F8D4C
:1003B0009B8F8A8F8A8D9B8D0197F1F79B8F8A8FF8
:1003C0000FC069A57AA58BA59CA50E940F15DC011D
:1003D000CB0188A788A5898F898D8A95F1F7898FA8
:1003E000E3E3F0E0808180932B02E4E3F0E080EF30
:1003F0008083E5E3F0E08FE0808380E090E0A0EA96
:10040000B0E48D8B9E8BAF8BB88F6D897E898F8981
:10041000988D2BEA3AEA4AEA50E40E94E516DC019C
:10042000CB01898B9A8BAB8BBC8B69897A898B8941
:100430009C8920E030E040E85FE30E94EB188823CD
:100440001CF481E0888B91C069897A898B899C89A9
:1004500020E030E04FE753E40E948B1818160CF0B0
:100460007BC06D897E898F89988D20E030E04AE7D6
:1004700054E40E94DF17DC01CB018C879D87AE8797
:10048000BF876C857D858E859F8520E030E04AE7BB
:1004900055E40E94E516DC01CB0188879987AA877D
:1004A000BB87688579858A859B8520E030E040E8B8
:1004B0005FE30E94EB1888232CF481E090E09F8397
:1004C0008E833FC0688579858A859B8520E03FEFD4
:1004D0004FE757E40E948B1818164CF56C857D8504
:1004E0008E859F8520E030E040E251E40E94E516D1
:1004F000DC01CB01BC01CD010E940F15DC01CB0159
:100500009F838E830FC080E991E09D838C838C81D3
:100510009D810197F1F79D838C838E819F81019747
:100520009F838E838E819F81009769F724C06885A1
:1005300079858A859B850E940F15DC01CB019F83FD
:100540008E838E819F819B838A838A819B81019781
:10055000F1F79B838A830FC069897A898B899C898B
:100560000E940F15DC01CB01888B888989838981E2
:100570008A95F1F78983E3E3F0E0908180912B0283
:10058000892B80932B02E0960FB6F894DEBF0FBE46
:10059000CDBFCF91DF910895DF93CF93CDB7DEB775
:1005A00029970FB6F894DEBF0FBECDBFA1E3B0E030
:1005B000E1E3F0E0808180648C93E3E5F0E088E0A3
:1005C00080830E94200180912B028F3F09F4C8C0D4
:1005D00010921B02C0C080911B02882F90E0FC018A
:1005E000E05AFF4F908180912B02981709F0AEC01E
:1005F00010921A0210921902E2E5F0E01082E3E58F
:10060000F0E085E0808322C00E942001E2E5F0E076
:1006100080818F3249F48091190290911A020196DB
:1006200090931A02809319028091190290911A02F4
:100630008530910558F0A2E3B0E0E2E3F0E090816C
:1006400080E489278C9381E08093160280911B02BD
:10065000882F90E0FC01E05AFF4F908180912B029F
:10066000981791F2E3E5F0E0108280911B02882F49
:1006700090E0FC01E059FF4F80818A3211F58091B2
:100680001C02882F90E09C012150304081E090E0D6
:10069000B9010E94F61180E290E00E94FF0C809167
:1006A0001C02882F90E09C012250304081E090E0B5
:1006B000B9010E94F61180911C02815080931C02A6
:1006C00045C080911B02882F90E0FC01E059FF4F4C
:1006D00080818332C1F480911602882321F08091B9
:1006E0001502813021F481E08093140239C0809199
:1006F0001602813041F480911502882321F40E9472
:1007000022071986D3C080911C02282F30E081E097
:1007100090E0B9010E94F6118AE290E00E94FF0C7D
:1007200080911C02282F30E080911B02882F90E0DE
:10073000FC01E059FF4F8081F901EB5DFD4F8083A3
:1007400080911C028F5F80931C020AC080911B0263
:100750008F5F80931B0280911B02803108F43BCF96
:10076000809114021886813011F481E0888780918D
:100770001C021F82863011F491E09F8388859F813F
:100780008923882309F41DCF1092140210921C02B1
:1007900010921D02809117028130F1F410921B0219
:1007A00015C080911B02282F30E080911B02882FFA
:1007B00090E0FC01EB5DFD4F8081F901E058FF4FB7
:1007C000808380911B028F5F80931B0280911B02AC
:1007D000863038F319866AC010921B021CC08091C3
:1007E0001B02882F90E0FC01EB5DFD4F2081809182
:1007F0001B02882F90E0FC01E058FF4F80812817F2
:1008000029F480911D028F5F80931D0280911B024D
:100810008F5F80931B0280911B02863000F38091D2
:100820001D021E82863011F481E08E8380911602B3
:100830001D82882311F491E09D838E819D818923FF
:10084000882329F00E94600481E089872FC080916D
:100850001D021C82863011F491E09C838091160267
:100860001B82813011F481E08B838C819B818923F1
:10087000882319F082E0898719C080911D021A82AD
:10088000863011F091E09A838091160219828130AE
:1008900011F481E089838A8199818923882319F061
:1008A00083E0898703C00E94D80519868985299627
:1008B0000FB6F894DEBF0FBECDBFCF91DF91089584
:1008C000DF93CF93CDB7DEB7AA970FB6F894DEBF0C
:1008D0000FBECDBF27E830E081E090E060E070E03F
:1008E000A9010E94381280E090E0AAEFB3E48FA340
:1008F00098A7A9A7BAA76FA178A589A59AA520E06E
:1009000030E04AE755E40E94E516DC01CB018BA3F9
:100910009CA3ADA3BEA36BA17CA18DA19EA120E051
:1009200030E040E85FE30E94EB1888232CF481E07C
:1009300090E09AA389A33FC06BA17CA18DA19EA149
:1009400020E03FEF4FE757E40E948B1818164CF554
:100950006FA178A589A59AA520E030E040E251E496
:100960000E94E516DC01CB01BC01CD010E940F15F0
:10097000DC01CB019AA389A30FC080E991E098A381
:100980008F8F8F8D98A10197F1F798A38F8F89A1F1
:100990009AA101979AA389A389A19AA1009769F7BF
:1009A00014C06BA17CA18DA19EA10E940F15DC013A
:1009B000CB019AA389A389A19AA19E8F8D8F8D8D3A
:1009C0009E8D0197F1F79E8F8D8F0E948E0780E09C
:1009D00090E0AAE7B5E4898F9A8FAB8FBC8F698DC1
:1009E0007A8D8B8D9C8D20E030E04AE755E40E94A3
:1009F000E516DC01CB018D8B9E8BAF8BB88F6D899B
:100A00007E898F89988D20E030E040E85FE30E9486
:100A1000EB1888232CF481E090E09C8B8B8B3FC0FB
:100A20006D897E898F89988D20E03FEF4FE757E4ED
:100A30000E948B1818164CF5698D7A8D8B8D9C8DC4
:100A400020E030E040E251E40E94E516DC01CB01F9
:100A5000BC01CD010E940F15DC01CB019C8B8B8B5F
:100A60000FC080E991E09A8B898B89899A890197D7
:100A7000F1F79A8B898B8B899C8901979C8B8B8B47
:100A80008B899C89009769F714C06D897E898F894D
:100A9000988D0E940F15DC01CB019C8B8B8B8B8971
:100AA0009C89988B8F878F8598890197F1F7988B10
:100AB0008F870E94A30780E090E0AAE7B5E48B87C8
:100AC0009C87AD87BE876B857C858D859E8520E064
:100AD00030E04AE755E40E94E516DC01CB018F8344
:100AE0009887A987BA876F81788589859A8520E05C
:100AF00030E040E85FE30E94EB1888232CF481E0AB
:100B000090E09E838D833FC06F81788589859A852B
:100B100020E03FEF4FE757E40E948B1818164CF582
:100B20006B857C858D859E8520E030E040E251E438
:100B30000E94E516DC01CB01BC01CD010E940F151E
:100B4000DC01CB019E838D830FC080E991E09C8303
:100B50008B838B819C810197F1F79C838B838D81A3
:100B60009E8101979E838D838D819E81009769F779
:100B700014C06F81788589859A850E940F15DC01E4
:100B8000CB019E838D838D819E819A838983898108
:100B90009A810197F1F79A8389830E94B807AA96F0
:100BA0000FB6F894DEBF0FBECDBFCF91DF91089591
:100BB000DF93CF93CDB7DEB76C970FB6F894DEBF57
:100BC0000FBECDBF809118028F5F80931802809175
:100BD0001802833009F098C01092180220E930E022
:100BE00081E090E060E070E0A9010E9438128091FD
:100BF0008600282F30E088E893E1B9010E943B1C71
:100C0000CB01AA2797FDA095BA2FBC01CD010E9468
:100C10001B19DC01CB01898F9A8FAB8FBC8F698D3B
:100C20007A8D8B8D9C8D20E030E04AE755E40E9460
:100C3000E516DC01CB018D8B9E8BAF8BB88F6D8958
:100C40007E898F89988D20E030E040E85FE30E9444
:100C5000EB1888232CF481E090E09C8B8B8B3FC0B9
:100C60006D897E898F89988D20E03FEF4FE757E4AB
:100C70000E948B1818164CF5698D7A8D8B8D9C8D82
:100C800020E030E040E251E40E94E516DC01CB01B7
:100C9000BC01CD010E940F15DC01CB019C8B8B8B1D
:100CA0000FC080E991E09A8B898B89899A89019795
:100CB000F1F79A8B898B8B899C8901979C8B8B8B05
:100CC0008B899C89009769F714C06D897E898F890B
:100CD000988D0E940F15DC01CB019C8B8B8B8B892F
:100CE0009C89988B8F878F8598890197F1F7988BCE
:100CF0008F870E940A0780918600882F90E0880FD6
:100D0000991F809386007DC026E930E081E090E065
:100D100060E070E0A9010E94381280E090E0AAEF44
:100D2000B3E48B879C87AD87BE876B857C858D857B
:100D30009E8520E030E04AE755E40E94E516DC019C
:100D4000CB018F839887A987BA876F81788589853A
:100D50009A8520E030E040E85FE30E94EB188823AA
:100D60002CF481E090E09E838D833FC06F81788575
:100D700089859A8520E03FEF4FE757E40E948B1862
:100D800018164CF56B857C858D859E8520E030E0BE
:100D900040E251E40E94E516DC01CB01BC01CD012B
:100DA0000E940F15DC01CB019E838D830FC080E96B
:100DB00091E09C838B838B819C810197F1F79C83CD
:100DC0008B838D819E8101979E838D838D819E81F2
:100DD000009769F714C06F81788589859A850E948C
:100DE0000F15DC01CB019E838D838D819E819A83BB
:100DF000898389819A810197F1F79A8389830E9477
:100E00000A076C960FB6F894DEBF0FBECDBFCF9128
:100E1000DF910895DF93CF93CDB7DEB70E947412B0
:100E200021EA30E080E090E060E070E0A9010E94FB
:100E3000381281E090E060E070E00E94F611CF91FE
:100E4000DF910895DF93CF93CDB7DEB781E0809334
:100E500015020E94741221EB30E080E090E060E027
:100E600070E0A9010E94381281E090E060E070E03B
:100E70000E94F6110E94CC02823051F581E08093ED
:100E800017020E9474122FEB30E080E090E060E0E7
:100E900070E0A9010E94381281E090E060E070E00B
:100EA0000E94F6110E94CC02809317020E947412D5
:100EB0002DEC30E080E090E060E070E0A9010E945D
:100EC000381281E090E060E070E00E94F61115C0F9
:100ED0000E94CC02833089F40E9474122EED30E01F
:100EE00080E090E060E070E0A9010E94381281E0AB
:100EF00090E060E070E00E94F611A2E3B0E0E2E36F
:100F0000F0E0908180E489278C930E940A07109278
:100F1000160210921502CF91DF910895DF93CF93BF
:100F2000CDB7DEB7A2E3B0E0E2E3F0E080818F7EF0
:100F30008C93A2E3B0E0E2E3F0E0808188608C93E0
:100F4000CF91DF910895DF93CF93CDB7DEB7A2E3C2
:100F5000B0E0E2E3F0E08081877F8C93A2E3B0E031
:100F6000E2E3F0E0808180618C93CF91DF9108957E
:100F7000DF93CF93CDB7DEB7A2E3B0E0E2E3F0E0DA
:100F80008081877F8C93A2E3B0E0E2E3F0E0808190
:100F90008F7E8C93CF91DF910895DF93CF93CDB760
:100FA000DEB7E3E5F0E088E080837894CF91DF91CD
:100FB0000895DF93CF93CDB7DEB76C970FB6F89453
:100FC000DEBF0FBECDBF80E090E0A0EFB1E4898F1F
:100FD0009A8FAB8FBC8F698D7A8D8B8D9C8D20E025
:100FE00030E04AE755E40E94E516DC01CB018D8B29
:100FF0009E8BAF8BB88F6D897E898F89988D20E00D
:1010000030E040E85FE30E94EB1888232CF481E095
:1010100090E09C8B8B8B3FC06D897E898F89988DEA
:1010200020E03FEF4FE757E40E948B1818164CF56D
:10103000698D7A8D8B8D9C8D20E030E040E251E40B
:101040000E94E516DC01CB01BC01CD010E940F1509
:10105000DC01CB019C8B8B8B0FC080E991E09A8BDC
:10106000898B89899A890197F1F79A8B898B8B896A
:101070009C8901979C8B8B8B8B899C89009769F746
:1010800014C06D897E898F89988D0E940F15DC01AF
:10109000CB019C8B8B8B8B899C89988B8F878F85C1
:1010A00098890197F1F7988B8F87EAE3F0E08FEF4B
:1010B0008083A7E3B0E0E7E3F0E080818E608C936B
:1010C00082E00E94E4088CE00E94E40881E00E9433
:1010D000E40880E090E0A0EFB1E48B879C87AD87C7
:1010E000BE876B857C858D859E8520E030E04AE754
:1010F00055E40E94E516DC01CB018F839887A98710
:10110000BA876F81788589859A8520E030E040E84C
:101110005FE30E94EB1888232CF481E090E09E832B
:101120008D833FC06F81788589859A8520E03FEF68
:101130004FE757E40E948B1818164CF56B857C8599
:101140008D859E8520E030E040E251E40E94E51666
:10115000DC01CB01BC01CD010E940F15DC01CB01EC
:101160009E838D830FC080E991E09C838B838B816C
:101170009C810197F1F79C838B838D819E810197E0
:101180009E838D838D819E81009769F714C06F8146
:10119000788589859A850E940F15DC01CB019E8395
:1011A0008D838D819E819A83898389819A8101971C
:1011B000F1F79A8389836C960FB6F894DEBF0FBE61
:1011C000CDBFCF91DF9108950F931F93DF93CF93FE
:1011D000CDB7DEB7C556D0400FB6F894DEBF0FBE10
:1011E000CDBFFE01EB59FF4F8083DE01AC59BF4FED
:1011F000FE01EB59FF4F8081807F8C93DE01AD595A
:10120000BF4FFE01EB59FF4F80818295807F8C9309
:10121000A8E3B0E0E8E3F0E080818D7F8C93A8E361
:10122000B0E0E8E3F0E080818B7F8C93FE01E15A2F
:10123000FF4F80E090E0A0E8BFE380839183A2832A
:10124000B3838E01055A1F4FFE01E15AFF4F6081A3
:1012500071818281938120E030E04AE755E40E9469
:10126000E516DC01CB01F80180839183A283B3836F
:10127000FE01E55AFF4F608171818281938120E0F8
:1012800030E040E85FE30E94EB18882344F4FE015D
:10129000E75AFF4F81E090E09183808364C0FE01B4
:1012A000E55AFF4F608171818281938120E03FEF99
:1012B0004FE757E40E948B1818160CF043C0FE014C
:1012C000E15AFF4F608171818281938120E030E09B
:1012D00040E251E40E94E516DC01CB018E01075A81
:1012E0001F4FBC01CD010E940F15DC01CB01F8019D
:1012F000918380831FC0FE01E95AFF4F80E991E08E
:1013000091838083FE01E95AFF4F8081918101978B
:10131000F1F7FE01E95AFF4F91838083DE01A75A5E
:10132000BF4FFE01E75AFF4F8081918101971196CF
:101330009C938E93FE01E75AFF4F80819181009725
:10134000D1F627C08E01075A1F4FFE01E55AFF4F05
:1013500060817181828193810E940F15DC01CB0134
:10136000F80191838083DE01AB5ABF4FFE01E75A3B
:10137000FF4F808191818D939C93FE01EB5AFF4F2B
:10138000808191810197F1F7FE01EB5AFF4F918324
:101390008083A8E3B0E0E8E3F0E0808188608C938C
:1013A000FE01EF5AFF4F80E090E0A0E8BFE38083AA
:1013B0009183A283B3838E01035B1F4FFE01EF5A1B
:1013C000FF4F608171818281938120E030E04AE7A4
:1013D00055E40E94E516DC01CB01F801808391837E
:1013E000A283B383FE01E35BFF4F60817181828141
:1013F000938120E030E040E85FE30E94EB1888230F
:1014000044F4FE01E55BFF4F81E090E0918380832F
:1014100064C0FE01E35BFF4F608171818281938133
:1014200020E03FEF4FE757E40E948B1818160CF0AE
:1014300043C0FE01EF5AFF4F608171818281938129
:1014400020E030E040E251E40E94E516DC01CB01EF
:101450008E01055B1F4FBC01CD010E940F15DC0101
:10146000CB01F801918380831FC0FE01E75BFF4F32
:1014700080E991E091838083FE01E75BFF4F8081EB
:1014800091810197F1F7FE01E75BFF4F9183808324
:10149000DE01A55BBF4FFE01E55BFF4F80819181BF
:1014A000019711969C938E93FE01E55BFF4F80811F
:1014B00091810097D1F627C08E01055B1F4FFE0179
:1014C000E35BFF4F60817181828193810E940F15E0
:1014D000DC01CB01F80191838083DE01A95BBF4F62
:1014E000FE01E55BFF4F808191818D939C93FE010E
:1014F000E95BFF4F808191810197F1F7FE01E95B84
:10150000FF4F91838083ABE3B0E0FE01EC59FF4FC6
:1015100080818C93FE01ED5BFF4F80E090E0A0E8BE
:10152000BFE380839183A283B3838E01015C1F4F4D
:10153000FE01ED5BFF4F608171818281938120E02C
:1015400030E04AE755E40E94E516DC01CB01F801E2
:1015500080839183A283B383FE01FF9660817181B2
:101560008281938120E030E040E85FE30E94EB1845
:1015700088232CF481E090E09EAF8DAF46C0FE0141
:10158000FF96608171818281938120E03FEF4FE778
:1015900057E40E948B18181664F5FE01ED5BFF4FAF
:1015A000608171818281938120E030E040E251E4EA
:1015B0000E94E516DC01CB01BC01CD010E940F1594
:1015C000DC01CB019EAF8DAF0FC080E991E09CAFF5
:1015D0008BAF8BAD9CAD0197F1F79CAF8BAF8DAD11
:1015E0009EAD01979EAF8DAF8DAD9EAD009769F713
:1015F00016C0FE01FF9660817181828193810E94F5
:101600000F15DC01CB019EAF8DAF8DAD9EAD9AAFB6
:1016100089AF89AD9AAD0197F1F79AAF89AFA8E389
:10162000B0E0E8E3F0E08081877F8C9380E090E099
:10163000A0E8BFE38DAB9EABAFABB8AF6DA97EA901
:101640008FA998AD20E030E04AE755E40E94E51606
:10165000DC01CB0189AB9AABABABBCAB69A97AA976
:101660008BA99CA920E030E040E85FE30E94EB18E2
:1016700088232CF481E090E098AB8FA73FC069A944
:101680007AA98BA99CA920E03FEF4FE757E40E947D
:101690008B1818164CF56DA97EA98FA998AD20E07E
:1016A00030E040E251E40E94E516DC01CB01BC01D0
:1016B000CD010E940F15DC01CB0198AB8FA70FC0A5
:1016C00080E991E09EA78DA78DA59EA50197F1F7D2
:1016D0009EA78DA78FA598A9019798AB8FA78FA5D7
:1016E00098A9009769F714C069A97AA98BA99CA940
:1016F0000E940F15DC01CB0198AB8FA78FA598A98D
:101700009CA78BA78BA59CA50197F1F79CA78BA7FE
:10171000A8E3B0E0E8E3F0E0808188608C9380E0AB
:1017200090E0A0E8BFE38FA398A7A9A7BAA76FA1ED
:1017300078A589A59AA520E030E04AE755E40E9403
:10174000E516DC01CB018BA39CA3ADA3BEA36BA1CB
:101750007CA18DA19EA120E030E040E85FE30E94E3
:10176000EB1888232CF481E090E09AA389A33FC072
:101770006BA17CA18DA19EA120E03FEF4FE757E434
:101780000E948B1818164CF56FA178A589A59AA50B
:1017900020E030E040E251E40E94E516DC01CB019C
:1017A000BC01CD010E940F15DC01CB019AA389A3D6
:1017B0000FC080E991E098A38F8F8F8D98A101973A
:1017C000F1F798A38F8F89A19AA101979AA389A372
:1017D00089A19AA1009769F714C06BA17CA18DA182
:1017E0009EA10E940F15DC01CB019AA389A389A1B8
:1017F0009AA19E8F8D8F8D8D9E8D0197F1F79E8F73
:101800008D8FABE3B0E0FE01ED59FF4F80818C93EB
:1018100080E090E0A0E8BFE3898F9A8FAB8FBC8F08
:10182000698D7A8D8B8D9C8D20E030E04AE755E400
:101830000E94E516DC01CB018D8B9E8BAF8BB88FA0
:101840006D897E898F89988D20E030E040E85FE3E4
:101850000E94EB1888232CF481E090E09C8B8B8B0A
:101860003FC06D897E898F89988D20E03FEF4FE7DB
:1018700057E40E948B1818164CF5698D7A8D8B8D64
:101880009C8D20E030E040E251E40E94E516DC014E
:10189000CB01BC01CD010E940F15DC01CB019C8B5B
:1018A0008B8B0FC080E991E09A8B898B89899A890B
:1018B0000197F1F79A8B898B8B899C8901979C8B77
:1018C0008B8B8B899C89009769F714C06D897E8901
:1018D0008F89988D0E940F15DC01CB019C8B8B8B1F
:1018E0008B899C89988B8F878F8598890197F1F7D1
:1018F000988B8F87A8E3B0E0E8E3F0E08081877FF2
:101900008C9380E090E0A0E8BFE38B879C87AD8755
:10191000BE876B857C858D859E8520E030E04AE71B
:1019200055E40E94E516DC01CB018F839887A987D7
:10193000BA876F81788589859A8520E030E040E814
:101940005FE30E94EB1888232CF481E090E09E83F3
:101950008D833FC06F81788589859A8520E03FEF30
:101960004FE757E40E948B1818164CF56B857C8561
:101970008D859E8520E030E040E251E40E94E5162E
:10198000DC01CB01BC01CD010E940F15DC01CB01B4
:101990009E838D830FC080E991E09C838B838B8134
:1019A0009C810197F1F79C838B838D819E810197A8
:1019B0009E838D838D819E81009769F714C06F810E
:1019C000788589859A850E940F15DC01CB019E835D
:1019D0008D838D819E819A83898389819A810197E4
:1019E000F1F79A838983CB59DF4F0FB6F894DEBFA6
:1019F0000FBECDBFCF91DF911F910F9108950F932F
:101A00001F93DF93CF93CDB7DEB7C357D0400FB648
:101A1000F894DEBF0FBECDBFFE01ED58FF4F8083AF
:101A2000DE01AE58BF4FFE01ED58FF4F8081807F31
:101A30008C93DE01AF58BF4FFE01ED58FF4F808100
:101A40008295807F8C93A8E3B0E0E8E3F0E08081AA
:101A500082608C93A8E3B0E0E8E3F0E080818B7FC4
:101A60008C93FE01E359FF4F80E090E0A0E8BFE3D4
:101A700080839183A283B3838E0107591F4FFE0198
:101A8000E359FF4F608171818281938120E030E0D2
:101A90004AE755E40E94E516DC01CB01F80180839A
:101AA0009183A283B383FE01E759FF4F6081718167
:101AB0008281938120E030E040E85FE30E94EB18F0
:101AC000882344F4FE01E959FF4F81E090E09183BF
:101AD000808364C0FE01E759FF4F6081718182817C
:101AE000938120E03FEF4FE757E40E948B181816D0
:101AF0000CF043C0FE01E359FF4F60817181828188
:101B0000938120E030E040E251E40E94E516DC01E0
:101B1000CB018E0109591F4FBC01CD010E940F1549
:101B2000DC01CB01F801918380831FC0FE01EB59DA
:101B3000FF4F80E991E091838083FE01EB59FF4FD5
:101B4000808191810197F1F7FE01EB59FF4F91835D
:101B50008083DE01A959BF4FFE01E959FF4F808103
:101B60009181019711969C938E93FE01E959FF4F45
:101B7000808191810097D1F627C08E0109591F4FAE
:101B8000FE01E759FF4F60817181828193810E943C
:101B90000F15DC01CB01F80191838083DE01AD5983
:101BA000BF4FFE01E959FF4F808191818D939C9336
:101BB000FE01ED59FF4F808191810197F1F7FE0100
:101BC000ED59FF4F91838083A8E3B0E0E8E3F0E0B4
:101BD000808188608C93FE01E15AFF4F80E090E0A5
:101BE000A0E8BFE380839183A283B3838E01055A6B
:101BF0001F4FFE01E15AFF4F608171818281938105
:101C000020E030E04AE755E40E94E516DC01CB0114
:101C1000F80180839183A283B383FE01E55AFF4FCD
:101C2000608171818281938120E030E040E85FE350
:101C30000E94EB18882344F4FE01E75AFF4F81E02D
:101C400090E09183808364C0FE01E55AFF4F60817C
:101C500071818281938120E03FEF4FE757E40E943A
:101C60008B1818160CF043C0FE01E15AFF4F60813B
:101C700071818281938120E030E040E251E40E9452
:101C8000E516DC01CB018E01075A1F4FBC01CD01C7
:101C90000E940F15DC01CB01F801918380831FC0E6
:101CA000FE01E95AFF4F80E991E091838083FE01B4
:101CB000E95AFF4F808191810197F1F7FE01E95ABE
:101CC000FF4F91838083DE01A75ABF4FFE01E75A81
:101CD000FF4F80819181019711969C938E93FE0115
:101CE000E75AFF4F808191810097D1F627C08E017E
:101CF000075A1F4FFE01E55AFF4F608171818281B3
:101D000093810E940F15DC01CB01F8019183808340
:101D1000DE01AB5ABF4FFE01E75AFF4F8081918130
:101D20008D939C93FE01EB5AFF4F80819181019727
:101D3000F1F7FE01EB5AFF4F91838083ABE3B0E0F4
:101D4000FE01EE58FF4F80818C93FE01EF5AFF4F4A
:101D500080E090E0A0E8BFE380839183A283B38317
:101D60008E01035B1F4FFE01EF5AFF4F60817181AF
:101D70008281938120E030E04AE755E40E94E51635
:101D8000DC01CB01F80180839183A283B383FE0140
:101D9000E35BFF4F608171818281938120E030E0BD
:101DA00040E85FE30E94EB18882344F4FE01E55B02
:101DB000FF4F81E090E09183808364C0FE01E35B8C
:101DC000FF4F608171818281938120E03FEF4FE777
:101DD00057E40E948B1818160CF043C0FE01EF5A0E
:101DE000FF4F608171818281938120E030E040E289
:101DF00051E40E94E516DC01CB018E01055B1F4F0B
:101E0000BC01CD010E940F15DC01CB01F8019183CB
:101E100080831FC0FE01E75BFF4F80E991E0918363
:101E20008083FE01E75BFF4F808191810197F1F78D
:101E3000FE01E75BFF4F91838083DE01A55BBF4F0F
:101E4000FE01E55BFF4F80819181019711969C9384
:101E50008E93FE01E55BFF4F808191810097D1F663
:101E600027C08E01055B1F4FFE01E35BFF4F6081C2
:101E70007181828193810E940F15DC01CB01F801F1
:101E800091838083DE01A95BBF4FFE01E55BFF4FBD
:101E9000808191818D939C93FE01E95BFF4F80814E
:101EA00091810197F1F7FE01E95BFF4F91838083F8
:101EB000A8E3B0E0E8E3F0E08081877F8C93FE0147
:101EC000ED5BFF4F80E090E0A0E8BFE3808391836B
:101ED000A283B3838E01015C1F4FFE01ED5BFF4FB8
:101EE000608171818281938120E030E04AE755E48E
:101EF0000E94E516DC01CB01F80180839183A28367
:101F0000B383FE01FF96608171818281938120E01D
:101F100030E040E85FE30E94EB1888232CF481E076
:101F200090E09EAF8DAF46C0FE01FF96608171814B
:101F30008281938120E03FEF4FE757E40E948B18A6
:101F4000181664F5FE01ED5BFF4F6081718182819F
:101F5000938120E030E040E251E40E94E516DC018C
:101F6000CB01BC01CD010E940F15DC01CB019EAF5E
:101F70008DAF0FC080E991E09CAF8BAF8BAD9CAD76
:101F80000197F1F79CAF8BAF8DAD9EAD01979EAFE2
:101F90008DAF8DAD9EAD009769F716C0FE01FF961F
:101FA00060817181828193810E940F15DC01CB01D8
:101FB0009EAF8DAF8DAD9EAD9AAF89AF89AD9AAD15
:101FC0000197F1F79AAF89AF80E090E0A0E8BFE316
:101FD0008DAB9EABAFABB8AF6DA97EA98FA998AD05
:101FE00020E030E04AE755E40E94E516DC01CB0131
:101FF00089AB9AABABABBCAB69A97AA98BA99CA9FD
:1020000020E030E040E85FE30E94EB1888232CF4E6
:1020100081E090E098AB8FA73FC069A97AA98BA90E
:102020009CA920E03FEF4FE757E40E948B18181659
:102030004CF56DA97EA98FA998AD20E030E040E273
:1020400051E40E94E516DC01CB01BC01CD010E94E8
:102050000F15DC01CB0198AB8FA70FC080E991E091
:102060009EA78DA78DA59EA50197F1F79EA78DA789
:102070008FA598A9019798AB8FA78FA598A90097CE
:1020800069F714C069A97AA98BA99CA90E940F15A8
:10209000DC01CB0198AB8FA78FA598A99CA78BA734
:1020A0008BA59CA50197F1F79CA78BA7A8E3B0E0AF
:1020B000E8E3F0E0808188608C9380E090E0A0E825
:1020C000BFE38FA398A7A9A7BAA76FA178A589A5F1
:1020D0009AA520E030E04AE755E40E94E516DC01CD
:1020E000CB018BA39CA3ADA3BEA36BA17CA18DA1AF
:1020F0009EA120E030E040E85FE30E94EB188823D7
:102100002CF481E090E09AA389A33FC06BA17CA14D
:102110008DA19EA120E03FEF4FE757E40E948B186E
:1021200018164CF56FA178A589A59AA520E030E096
:1021300040E251E40E94E516DC01CB01BC01CD0177
:102140000E940F15DC01CB019AA389A30FC080E97F
:1021500091E098A38F8F8F8D98A10197F1F798A3A5
:102160008F8F89A19AA101979AA389A389A19AA186
:10217000009769F714C06BA17CA18DA19EA10E945C
:102180000F15DC01CB019AA389A389A19AA19E8F87
:102190008D8F8D8D9E8D0197F1F79E8F8D8FABE387
:1021A000B0E0FE01EF58FF4F80818C9380E090E01B
:1021B000A0E8BFE3898F9A8FAB8FBC8F698D7A8D32
:1021C0008B8D9C8D20E030E04AE755E40E94E516B7
:1021D000DC01CB018D8B9E8BAF8BB88F6D897E8997
:1021E0008F89988D20E030E040E85FE30E94EB1893
:1021F00088232CF481E090E09C8B8B8B3FC06D8911
:102200007E898F89988D20E03FEF4FE757E40E9449
:102210008B1818164CF5698D7A8D8B8D9C8D20E06E
:1022200030E040E251E40E94E516DC01CB01BC0144
:10223000CD010E940F15DC01CB019C8B8B8B0FC055
:1022400080E991E09A8B898B89899A890197F1F7C6
:102250009A8B898B8B899C8901979C8B8B8B8B8923
:102260009C89009769F714C06D897E898F89988D44
:102270000E940F15DC01CB019C8B8B8B8B899C8979
:10228000988B8F878F8598890197F1F7988B8F8727
:10229000A8E3B0E0E8E3F0E08081877F8C9380E002
:1022A00090E0A0E8BFE38B879C87AD87BE876B85F6
:1022B0007C858D859E8520E030E04AE755E40E94CC
:1022C000E516DC01CB018F839887A987BA876F81D8
:1022D000788589859A8520E030E040E85FE30E94B8
:1022E000EB1888232CF481E090E09E838D833FC01F
:1022F0006F81788589859A8520E03FEF4FE757E425
:102300000E948B1818164CF56B857C858D859E85F3
:1023100020E030E040E251E40E94E516DC01CB0110
:10232000BC01CD010E940F15DC01CB019E838D8382
:102330000FC080E991E09C838B838B819C81019706
:10234000F1F79C838B838D819E8101979E838D8382
:102350008D819E81009769F714C06F81788589858A
:102360009A850E940F15DC01CB019E838D838D81A0
:102370009E819A83898389819A810197F1F79A8353
:102380008983CD58DF4F0FB6F894DEBF0FBECDBFA7
:10239000CF91DF911F910F910895DF93CF9300D0DC
:1023A0000F92CDB7DEB79B838A8319820EC08981D5
:1023B000282F30E08A819B81FC01E20FF31F80818E
:1023C0000E94FF0C89818F5F89838981282F30E0EB
:1023D0008A819B81FC01E20FF31F8081882339F7FA
:1023E0000F900F900F90CF91DF910895DF93CF93CF
:1023F00000D000D00F92CDB7DEB78A836B838A817D
:10240000282F30E03D832C838C819D818130910584
:10241000C1F02C813D81223031052CF48C819D81CD
:10242000009761F019C02C813D812230310569F09F
:102430008C819D818330910561F00EC08B818983F1
:102440000BC08B81805C898307C08B81805F89830F
:1024500003C08B81805B8983898180680E94E40846
:102460000F900F900F900F900F90CF91DF910895E4
:10247000DF93CF9300D000D0CDB7DEB789836A83D6
:102480005C834B8389816A810E94F6118B819C81D8
:102490000E94CD110F900F900F900F90CF91DF9170
:1024A0000895DF93CF93CDB7DEB762970FB6F89458
:1024B000DEBF0FBECDBF9A8B898B89899A899E0119
:1024C0002F5F3F4FB9014AE050E00E94991CCE01B6
:1024D00001960E94CD1162960FB6F894DEBF0FBE32
:1024E000CDBFCF91DF910895DF93CF93CDB7DEB706
:1024F00081E00E94E408CF91DF910895DF93CF93AC
:10250000CDB7DEB72E970FB6F894DEBF0FBECDBFA6
:10251000A1E3B0E0E1E3F0E0808188618C930E9468
:1025200049000E94A7000E94D9070E94F71380E08B
:1025300090E0A0EFB1E48B879C87AD87BE876B8569
:102540007C858D859E8520E030E04AE755E40E9439
:10255000E516DC01CB018F839887A987BA876F8145
:10256000788589859A8520E030E040E85FE30E9425
:10257000EB1888232CF481E090E09E838D833FC08C
:102580006F81788589859A8520E03FEF4FE757E492
:102590000E948B1818164CF56B857C858D859E8561
:1025A00020E030E040E251E40E94E516DC01CB017E
:1025B000BC01CD010E940F15DC01CB019E838D83F0
:1025C0000FC080E991E09C838B838B819C81019774
:1025D000F1F79C838B838D819E8101979E838D83F0
:1025E0008D819E81009769F714C06F8178858985F8
:1025F0009A850E940F15DC01CB019E838D838D810E
:102600009E819A83898389819A810197F1F79A83C0
:1026100089830E941B1480912102909122028C33A5
:102620009105BCF70E9421130E940A070E94CC0268
:1026300080931E0280911E028130C1F70E947412A5
:10264000E8CFDF93CF93CDB7DEB7AC970FB6F89452
:10265000DEBF0FBECDBFCE01429699A788A7EEEE92
:10266000F0E0FBA7EAA7F6E1FCA7EAA5FBA500803E
:102670008AA59BA501969BA78AA7E8A5F9A5008234
:1026800088A599A5019699A788A79CA591509CA774
:10269000ECA5EE2351F7198A188A1F8681E0898BF1
:1026A00099C00E94741280E060E00E94F61189894E
:1026B0008F87188A17C08F85882F90E09C01215042
:1026C0003040CE014296FC01E20FF31F80810E9450
:1026D000FF0C8F8581508F878F85882331F0888903
:1026E0008F5F888B8889803130F380E090E0A8ECA0
:1026F000B2E48B879C87AD87BE876B857C858D8593
:102700009E8520E030E04AE755E40E94E516DC01B2
:10271000CB018F839887A987BA876F817885898550
:102720009A8520E030E040E85FE30E94EB188823C0
:102730002CF481E090E09E838D833FC06F8178858B
:1027400089859A8520E03FEF4FE757E40E948B1878
:1027500018164CF56B857C858D859E8520E030E0D4
:1027600040E251E40E94E516DC01CB01BC01CD0141
:102770000E940F15DC01CB019E838D830FC080E981
:1027800091E09C838B838B819C810197F1F79C83E3
:102790008B838D819E8101979E838D838D819E8108
:1027A000009769F714C06F81788589859A850E94A2
:1027B0000F15DC01CB019E838D838D819E819A83D1
:1027C000898389819A810197F1F79A83898389891D
:1027D0008F5F898B8989893108F463CFAC960FB6F6
:1027E000F894DEBF0FBECDBFCF91DF910895DF9388
:1027F000CF93CDB7DEB7A1E3B0E0E1E3F0E08081B5
:1028000082608C93A1E3B0E0E1E3F0E080818B7F14
:102810008C93ABE5B0E0EBE5F0E0808180648C93D5
:10282000A5E5B0E0E5E5F0E0808181608C937894E7
:10283000CF91DF910895DF93CF93CDB7DEB72E9779
:102840000FB6F894DEBF0FBECDBFA2E3B0E0E2E367
:10285000F0E0808182608C9380E090E0A0E7B1E4BA
:102860008B879C87AD87BE876B857C858D859E8594
:1028700020E030E04AE755E40E94E516DC01CB0198
:102880008F839887A987BA876F81788589859A858C
:1028900020E030E040E85FE30E94EB1888232CF44E
:1028A00081E090E09E838D833FC06F81788589852C
:1028B0009A8520E03FEF4FE757E40E948B181816E7
:1028C0004CF56B857C858D859E8520E030E040E26F
:1028D00051E40E94E516DC01CB01BC01CD010E9450
:1028E0000F15DC01CB019E838D830FC080E991E041
:1028F0009C838B838B819C810197F1F79C838B83D5
:102900008D819E8101979E838D838D819E8100970D
:1029100069F714C06F81788589859A850E940F15A3
:10292000DC01CB019E838D838D819E819A83898377
:1029300089819A810197F1F79A838983A2E3B0E0B4
:10294000E2E3F0E080818D7F8C932E960FB6F894B1
:10295000DEBF0FBECDBFCF91DF9108951F920F92C2
:102960000FB60F9211242F933F935F936F937F9332
:102970008F939F93AF93BF93EF93FF93DF93CF9387
:10298000CDB7DEB78091230290912402813091056A
:1029900099F4EEE4F0E01082ECE4F0E080819181C3
:1029A0009093200280931F02ECE4F0E011821082E9
:1029B000109224021092230280912302909124020B
:1029C000009769F4AEE4B0E0EEE4F0E0808181606D
:1029D0008C9381E090E09093240280932302809175
:1029E0001F02909120022AE330E0B9010E943B1CB3
:1029F000CB019093220280932102CF91DF91FF912E
:102A0000EF91BF91AF919F918F917F916F915F9166
:102A10003F912F910F900FBE0F901F901895EF923E
:102A2000FF920F931F937B018C0120E030E040E088
:102A30005FE40E94BB1888238CF0C801B70120E036
:102A400030E040E05FE40E9487160E9479199B0104
:102A5000AC01205030404040504806C0C801B7018A
:102A60000E9479199B01AC01B901CA011F910F9114
:102A7000FF90EF900895A0E0B0E0E1E4F5E10C9460
:102A8000621CDC012B01FA019C91923008F439C1DF
:102A9000EB018881823008F433C1943069F48430CA
:102AA00009F02FC111969C9111978981981709F40B
:102AB00028C1A8E0B1E025C1843009F421C18230E9
:102AC000A9F4923009F01DC19A01AD0188E0EA0134
:102AD0000990AE01E90109929E018150C1F7E2011E
:102AE000898111969C918923818308C1923009F4D0
:102AF00007C112962D903C901397EB018A819B8120
:102B00001496AD90BD90CD90DC901797EC80FD8031
:102B10000E811F819101281B390BB90137FF04C0B9
:102B200066277727621B730B603271050CF061C05A
:102B3000121613066CF537014801062E04C0969450
:102B40008794779467940A94D2F721E030E040E0CC
:102B500050E004C0220F331F441F551F6A95D2F75F
:102B600021503040404050402E213F2140235123EE
:102B7000211531054105510521F021E030E040E00B
:102B800050E079018A01E628F728082919293CC074
:102B9000232BD1F1260E371E35014601062E04C027
:102BA00096948794779467940A94D2F721E030E062
:102BB00040E050E004C0220F331F441F551F6A95A8
:102BC000D2F721503040404050402A213B214C2137
:102BD0005D21211531054105510521F021E030E04D
:102BE00040E050E059016A01A628B728C828D92832
:102BF0000BC0821593052CF01C01AA24BB2465018F
:102C000003C0EE24FF24870111969C91D2011196F6
:102C10008C91981709F445C0992339F0A8019701C0
:102C20002A193B094C095D0906C0A60195012E1918
:102C30003F09400B510B57FD08C01182338222829D
:102C400024833583468357831DC081E0818333828B
:102C5000228288279927DC01821B930BA40BB50BDA
:102C600084839583A683B7830DC0220F331F441F2F
:102C7000551F24833583468357838281938101972F
:102C8000938382832481358146815781DA01C9018A
:102C90000197A109B1098F5F9F4FAF4FBF4328F341
:102CA0000BC0918333822282EA0CFB1C0C1D1D1D7C
:102CB000E482F5820683178383E080832481358153
:102CC0004681578157FF1AC0C901AA2797FDA095D1
:102CD000BA2F81709070A070B07056954795379557
:102CE0002795822B932BA42BB52B84839583A683C6
:102CF000B78382819381019693838283DF0101C030
:102D0000D201CD01CDB7DEB7E2E10C947E1CA0E28A
:102D1000B0E0EDE8F6E10C946E1C69837A838B8356
:102D20009C832D833E834F835887E9E0EE2EF12C60
:102D3000EC0EFD1ECE010196B7010E946A1B8E01AA
:102D40000F5E1F4FCE010596B8010E946A1B8A894B
:102D500091E089278A8BC701B801AE01475E5F4FBA
:102D60000E943B150E94951AA096E6E00C948A1CDE
:102D7000A0E2B0E0EEEBF6E10C946E1C69837A837E
:102D80008B839C832D833E834F835887F9E0EF2EFE
:102D9000F12CEC0EFD1ECE010196B7010E946A1BBC
:102DA0008E010F5E1F4FCE010596B8010E946A1B6F
:102DB000C701B801AE01475E5F4F0E943B150E94FC
:102DC000951AA096E6E00C948A1CA0E2B0E0EBEE27
:102DD000F6E10C94621C69837A838B839C832D8338
:102DE0003E834F835887CE010196BE01675F7F4FB8
:102DF0000E946A1BCE010596BE016F5E7F4F0E9446
:102E00006A1B9985923088F089898230C8F09430A5
:102E100019F4823051F404C0843029F4923081F4E2
:102E200088E091E0C6C0923049F420E09A858A8912
:102E3000981321E02A87CE010996BBC0823049F45D
:102E400020E09A858A89981321E02A8BCE01419649
:102E5000B0C02D843E844F8458886D887E888F88CA
:102E6000988CEE24FF248701AA24BB24650140E04E
:102E700050E060E070E0E0E0F0E0C101817090704F
:102E8000892BE9F0E60CF71C081D191D9A01AB010E
:102E90002A0D3B1D4C1D5D1D80E090E0A0E0B0E0E0
:102EA000E614F7040805190520F481E090E0A0E09D
:102EB000B0E0BA01A901480F591F6A1F7B1FAA0C75
:102EC000BB1CCC1CDD1C97FE08C081E090E0A0E09C
:102ED000B0E0A82AB92ACA2ADB2A3196E032F105E5
:102EE00049F0660C771C881C991C569447943794BB
:102EF0002794C3CFFA85EA892B893C898B859C85E9
:102F0000280F391F2E5F3F4F17C0CA018170907084
:102F1000892B61F016950795F794E79480E090E08F
:102F2000A0E0B0E8E82AF92A0A2B1B2B76956795D2
:102F3000579547952F5F3F4F77FDE7CF0CC0440F64
:102F4000551F661F771F17FD4160EE0CFF1C001F09
:102F5000111F21503040403090E0590790E0690740
:102F600090E4790760F32B8F3C8FDB01CA018F77E8
:102F70009070A070B07080349105A105B10561F426
:102F800047FD0AC0E114F1040105110529F0405C78
:102F90005F4F6F4F7F4F40781A8EFE1711F081E020
:102FA0008A8F4D8F5E8F6F8F78A383E0898FCE01DC
:102FB00049960E94951AA096E2E10C947E1CA8E125
:102FC000B0E0E5EEF7E10C946A1C69837A838B83A9
:102FD0009C832D833E834F835887B9E0EB2EF12CE1
:102FE000EC0EFD1ECE010196B7010E946A1B8E01F8
:102FF0000F5E1F4FCE010596B8010E946A1B2985FE
:10300000223008F47EC03989323010F4B8017CC017
:103010008A859A8989278A87243011F0223031F4F1
:10302000231709F06EC068E071E06EC0343039F4E7
:103030001D861E861F86188A1C861B8604C0323099
:1030400021F484E08987B7015FC02B853C858B899B
:103050009C89281B390B3C872B87ED84FE840F85C8
:103060001889AD88BE88CF88D88CEA14FB040C057B
:103070001D0540F4EE0CFF1C001F111F21503040B5
:103080003C872B8720E030E040E050E080E090E09B
:10309000A0E0B0E460E070E0EA14FB040C051D055C
:1030A00040F0282B392B4A2B5B2BEA18FB080C0924
:1030B0001D09B695A79597958795EE0CFF1C001FE7
:1030C000111F6F5F7F4F6F31710531F7DA01C90151
:1030D0008F779070A070B07080349105A105B10514
:1030E00061F427FD0AC0E114F1040105110529F07E
:1030F000205C3F4F4F4F5F4F20782D873E874F8793
:10310000588BBE01675F7F4FCB010E94951A68966E
:10311000EAE00C94861CA8E1B0E0E1E9F8E10C9447
:103120006E1C69837A838B839C832D833E834F83BC
:10313000588789E0E82EF12CEC0EFD1ECE01019699
:10314000B7010E946A1B8E010F5E1F4FCE010596CC
:10315000B8010E946A1B8985823040F089898230DB
:1031600028F0C701B8010E94E21B01C08FEF6896EA
:10317000E6E00C948A1CA8E1B0E0E1ECF8E10C94E4
:103180006E1C69837A838B839C832D833E834F835C
:10319000588789E0E82EF12CEC0EFD1ECE01019639
:1031A000B7010E946A1B8E010F5E1F4FCE0105966C
:1031B000B8010E946A1B8985823040F0898982307B
:1031C00028F0C701B8010E94E21B01C08FEF68968A
:1031D000E6E00C948A1CA8E1B0E0E1EFF8E10C9481
:1031E0006E1C69837A838B839C832D833E834F83FC
:1031F000588789E0E82EF12CEC0EFD1ECE010196D9
:10320000B7010E946A1B8E010F5E1F4FCE0105960B
:10321000B8010E946A1B8985823040F0898982301A
:1032200028F0C701B8010E94E21B01C081E0689646
:10323000E6E00C948A1CA8E0B0E0E1E2F9E10C942D
:103240006B1C9B01AC0183E08983DA01C9018827EB
:10325000B7FD83959927AA27BB27B82E21153105DD
:103260004105510519F482E089833AC08823A9F009
:10327000203080E0380780E0480780E8580729F4CC
:1032800060E070E080E09FEC30C0EE24FF24870116
:10329000E21AF30A040B150B02C079018A018EE1D0
:1032A000C82ED12CDC82CB82ED82FE820F83188760
:1032B000C801B7010E94461A01971816190684F42E
:1032C000082E04C0EE0CFF1C001F111F0A94D2F739
:1032D000ED82FE820F831887C81AD90ADC82CB825E
:1032E000BA82CE0101960E94951A2896E9E00C94C4
:1032F000871CACE0B0E0EFE7F9E10C94721C698345
:103300007A838B839C83CE010196BE016B5F7F4FD6
:103310000E946A1B8D81823061F1823050F18430CD
:1033200021F48E81882351F12EC02F81388537FDFD
:1033300020C06E812F3131051CF06623F9F023C0C7
:103340008EE190E0821B930B29853A854B855C8545
:1033500004C056954795379527958A95D2F76623E9
:10336000B1F050954095309521953F4F4F4F5F4FAD
:103370000EC020E030E040E050E009C02FEF3FEF0A
:103380004FEF5FE704C020E030E040E050E8B901D3
:10339000CA012C96E2E00C948E1CA8E0B0E0E3EDAC
:1033A000F9E10C946A1C7B018C01611571058105A2
:1033B000910519F482E0898360C083E089838EE1FE
:1033C000C82ED12CDC82CB82ED82FE820F8318873F
:1033D000C801B7010E94461AFC013197F7FF3BC0B4
:1033E000222733272E1B3F0B57016801022E04C0F2
:1033F000D694C794B794A7940A94D2F740E050E0CB
:1034000060E070E081E090E0A0E0B0E004C0880FF0
:10341000991FAA1FBB1F2A95D2F70197A109B109CD
:103420008E219F21A023B1230097A105B10521F092
:1034300041E050E060E070E04A295B296C297D2979
:103440004D835E836F8378878EE190E08E1B9F0BA8
:103450009C838B8312C0309781F00E2E04C0EE0C3B
:10346000FF1C001F111F0A94D2F7ED82FE820F830A
:103470001887CE1ADF0ADC82CB821A82CE0101962F
:103480000E94951A2896EAE00C94861CEF92FF920F
:103490000F931F937B018C0180E0E81680E0F80613
:1034A00081E0080780E0180788F48FEFE816F10440
:1034B0000105110531F028F088E090E0A0E0B0E0CF
:1034C00017C080E090E0A0E0B0E012C080E0E81615
:1034D00080E0F80680E0080781E0180728F088E11E
:1034E00090E0A0E0B0E004C080E190E0A0E0B0E0B7
:1034F00020E230E040E050E0281B390B4A0B5B0B28
:1035000004C016950795F794E7948A95D2F7F701CA
:10351000E05FFE4F8081281B310941095109C90133
:103520001F910F91FF90EF900895DF92EF92FF921D
:103530000F931F93FC01E480F58006811781D180F1
:103540008081823048F480E090E0A0E1B0E0E82A99
:10355000F92A0A2B1B2BA5C0843009F49FC08230A6
:1035600021F4EE24FF24870105C0E114F1040105D4
:10357000110519F4E0E0F0E096C0628173819FEFDD
:10358000623879070CF05BC022E83FEF261B370B4F
:103590002A3131052CF020E030E040E050E02AC034
:1035A000B801A701022E04C07695679557954795F7
:1035B0000A94D2F781E090E0A0E0B0E004C0880F68
:1035C000991FAA1FBB1F2A95D2F70197A109B1091C
:1035D0008E219F21A023B1230097A105B10521F0E1
:1035E00081E090E0A0E0B0E09A01AB01282B392BFC
:1035F0004A2B5B2BDA01C9018F779070A070B070F5
:1036000080349105A105B10539F427FF09C0205C7C
:103610003F4F4F4F5F4F04C0215C3F4F4F4F5F4FB5
:10362000E0E0F0E02030A0E03A07A0E04A07A0E4A4
:103630005A0710F0E1E0F0E079018A0127C0603814
:10364000710564F5FB01E158FF4FD801C7018F7781
:103650009070A070B07080349105A105B10539F467
:10366000E7FE0DC080E490E0A0E0B0E004C08FE38E
:1036700090E0A0E0B0E0E80EF91E0A1F1B1F17FF44
:1036800005C016950795F794E794319687E016954F
:103690000795F794E7948A95D1F705C0EE24FF24A7
:1036A0008701EFEFF0E06E2F679566276795902F03
:1036B0009F77D794DD24D7948E2F8695492F462B5C
:1036C000582F5D29B701CA011F910F91FF90EF900C
:1036D000DF900895FC01DB01408151812281622F3E
:1036E0006F7770E0221F2227221F9381892F880F76
:1036F000822B282F30E0991F9927991F11969C93B0
:10370000119721153105A9F541155105610571057F
:1037100011F482E037C082E89FEF13969C938E935A
:1037200012979A01AB0167E0220F331F441F551F08
:103730006A95D1F783E08C930DC0220F331F441F8D
:10374000551F12968D919C911397019713969C93F8
:103750008E931297203080E0380780E0480780E49D
:10376000580758F314962D933D934D935C931797F8
:1037700008952F3F310579F4411551056105710513
:1037800019F484E08C93089564FF03C081E08C9366
:1037900012C01C9210C02F57304013963C932E93AA
:1037A000129783E08C9387E0440F551F661F771FA5
:1037B0008A95D1F7706414964D935D936D937C93C5
:1037C000179708951F93DC01FB019C91923008F438
:1037D00047C08081823008F443C0943051F4119680
:1037E0001C91843099F58181682F70E0611B71090B
:1037F0003FC0843021F0923031F48230B9F18181C0
:10380000882389F12DC011961C9111978230F1F017
:1038100081811817D9F412962D913C9113978281CA
:1038200093818217930794F028173907BCF01496F8
:103830008D919D910D90BC91A02D24813581468163
:103840005781281739074A075B0718F4112341F0FD
:103850000AC082179307A407B50740F4112319F093
:1038600061E070E005C06FEF7FEF02C060E070E0E4
:10387000CB011F91089597FB092E07260AD077FDEB
:1038800004D00CD006D000201AF4709561957F4FBB
:103890000895F6F7909581959F4F0895AA1BBB1B3D
:1038A00051E107C0AA1FBB1FA617B70710F0A61B40
:1038B000B70B881F991F5A95A9F780959095BC0161
:1038C000CD0108952F923F924F925F926F927F9217
:1038D0008F929F92AF92BF92CF92DF92EF92FF9220
:1038E0000F931F93CF93DF93CDB7DEB7CA1BDB0BCC
:1038F0000FB6F894DEBF0FBECDBF09942A88398871
:1039000048885F846E847D848C849B84AA84B98477
:10391000C884DF80EE80FD800C811B81AA81B98183
:10392000CE0FD11D0FB6F894DEBF0FBECDBFED0197
:103930000895E62FF72F2E2F3F2FE8944230C4F042
:103940004532B4F44A3029F497FB1EF490958195E2
:103950009F4F642F7727A2DF805D8A330CF0895D4B
:103960008193862F972F0097A1F716F45DE251936C
:103970001082822F932F00C0A82FB92FE82FF92F84
:10398000672F71917723E1F7329704C07C916D9393
:1039900070836291AE17BF07C8F30895F894FFCF04
:1039A000EEEDEBE7DEDDDBD7BEBDBBB77E7D7B7723
:1039B000232A303D7E3938372D3635342B3332319A
:1039C000313233343536014772616E7465642100DB
:1039D00057616974210054727920416761696E21D1
:1039E00000456E7465722050617373776F72643A2C
:1039F000004F6C642050617373776F72643A004EAD
:103A000065772050617373776F72643A0050617309
:103A100073776F72642055706461746564005772C7
:103A20006F6E672050617373776F72642100216538
:103A30006D6F636C655720202020202020202020DF
:103A40002020202020202000000000000000000096
:103A50000001020203030303040404040404040435
:103A60000505050505050505050505050505050506
:103A700006060606060606060606060606060606E6
:103A800006060606060606060606060606060606D6
:103A900007070707070707070707070707070707B6
:103AA00007070707070707070707070707070707A6
:103AB0000707070707070707070707070707070796
:103AC0000707070707070707070707070707070786
:103AD0000808080808080808080808080808080866
:103AE0000808080808080808080808080808080856
:103AF0000808080808080808080808080808080846
:103B00000808080808080808080808080808080835
:103B10000808080808080808080808080808080825
:103B20000808080808080808080808080808080815
:103B30000808080808080808080808080808080805
:103B400008080808080808080808080808080808F5
:00000001FF
